{
  "_format": "hh-sol-artifact-1",
  "contractName": "TradeMatcher",
  "sourceName": "contracts/Exchange/TradeMatcher712.sol",
  "abi": [
    {
      "inputs": [],
      "stateMutability": "nonpayable",
      "type": "constructor"
    },
    {
      "inputs": [
        {
          "internalType": "address",
          "name": "target",
          "type": "address"
        }
      ],
      "name": "AddressEmptyCode",
      "type": "error"
    },
    {
      "inputs": [
        {
          "internalType": "address",
          "name": "account",
          "type": "address"
        }
      ],
      "name": "AddressInsufficientBalance",
      "type": "error"
    },
    {
      "inputs": [],
      "name": "AlreadyRegistered",
      "type": "error"
    },
    {
      "inputs": [],
      "name": "ECDSAInvalidSignature",
      "type": "error"
    },
    {
      "inputs": [
        {
          "internalType": "uint256",
          "name": "length",
          "type": "uint256"
        }
      ],
      "name": "ECDSAInvalidSignatureLength",
      "type": "error"
    },
    {
      "inputs": [
        {
          "internalType": "bytes32",
          "name": "s",
          "type": "bytes32"
        }
      ],
      "name": "ECDSAInvalidSignatureS",
      "type": "error"
    },
    {
      "inputs": [],
      "name": "FailedInnerCall",
      "type": "error"
    },
    {
      "inputs": [],
      "name": "InvalidComplement",
      "type": "error"
    },
    {
      "inputs": [],
      "name": "InvalidInitialization",
      "type": "error"
    },
    {
      "inputs": [],
      "name": "InvalidTokenId",
      "type": "error"
    },
    {
      "inputs": [],
      "name": "MathOverflowedMulDiv",
      "type": "error"
    },
    {
      "inputs": [],
      "name": "NotInitializing",
      "type": "error"
    },
    {
      "inputs": [
        {
          "internalType": "address",
          "name": "token",
          "type": "address"
        }
      ],
      "name": "SafeERC20FailedOperation",
      "type": "error"
    },
    {
      "anonymous": false,
      "inputs": [],
      "name": "EIP712DomainChanged",
      "type": "event"
    },
    {
      "anonymous": false,
      "inputs": [
        {
          "indexed": false,
          "internalType": "uint64",
          "name": "version",
          "type": "uint64"
        }
      ],
      "name": "Initialized",
      "type": "event"
    },
    {
      "anonymous": false,
      "inputs": [
        {
          "indexed": true,
          "internalType": "address",
          "name": "trader_address",
          "type": "address"
        },
        {
          "indexed": true,
          "internalType": "bytes32",
          "name": "order_hash",
          "type": "bytes32"
        }
      ],
      "name": "OrderCancelled",
      "type": "event"
    },
    {
      "anonymous": false,
      "inputs": [
        {
          "indexed": true,
          "internalType": "uint256",
          "name": "token0",
          "type": "uint256"
        },
        {
          "indexed": true,
          "internalType": "uint256",
          "name": "token1",
          "type": "uint256"
        },
        {
          "indexed": true,
          "internalType": "bytes32",
          "name": "conditionId",
          "type": "bytes32"
        }
      ],
      "name": "TokenRegistered",
      "type": "event"
    },
    {
      "anonymous": false,
      "inputs": [
        {
          "indexed": true,
          "internalType": "address",
          "name": "maker_address",
          "type": "address"
        },
        {
          "indexed": false,
          "internalType": "uint256",
          "name": "token_id",
          "type": "uint256"
        },
        {
          "indexed": false,
          "internalType": "uint256",
          "name": "quantity",
          "type": "uint256"
        },
        {
          "indexed": false,
          "internalType": "uint256",
          "name": "price",
          "type": "uint256"
        },
        {
          "indexed": false,
          "internalType": "bool",
          "name": "buy",
          "type": "bool"
        }
      ],
      "name": "TradeRegistered",
      "type": "event"
    },
    {
      "inputs": [],
      "name": "DOMAIN_SEPARATOR",
      "outputs": [
        {
          "internalType": "bytes32",
          "name": "",
          "type": "bytes32"
        }
      ],
      "stateMutability": "view",
      "type": "function"
    },
    {
      "inputs": [
        {
          "internalType": "address",
          "name": "maker_address_",
          "type": "address"
        },
        {
          "internalType": "uint256",
          "name": "option_id_",
          "type": "uint256"
        },
        {
          "internalType": "bool",
          "name": "long_",
          "type": "bool"
        },
        {
          "internalType": "uint256",
          "name": "min_valid_salt_",
          "type": "uint256"
        }
      ],
      "name": "cancelAllOrdersInOptionId",
      "outputs": [],
      "stateMutability": "nonpayable",
      "type": "function"
    },
    {
      "inputs": [
        {
          "components": [
            {
              "internalType": "address",
              "name": "maker_address",
              "type": "address"
            },
            {
              "internalType": "uint256",
              "name": "token_id",
              "type": "uint256"
            },
            {
              "internalType": "uint256",
              "name": "quantity",
              "type": "uint256"
            },
            {
              "internalType": "uint256",
              "name": "price",
              "type": "uint256"
            },
            {
              "internalType": "bool",
              "name": "buy",
              "type": "bool"
            },
            {
              "internalType": "uint256",
              "name": "deadline",
              "type": "uint256"
            },
            {
              "internalType": "uint256",
              "name": "salt",
              "type": "uint256"
            },
            {
              "internalType": "bytes",
              "name": "order_signature",
              "type": "bytes"
            }
          ],
          "internalType": "struct Order",
          "name": "order_",
          "type": "tuple"
        }
      ],
      "name": "cancelOrder",
      "outputs": [],
      "stateMutability": "nonpayable",
      "type": "function"
    },
    {
      "inputs": [
        {
          "components": [
            {
              "internalType": "address",
              "name": "maker_address",
              "type": "address"
            },
            {
              "internalType": "uint256",
              "name": "token_id",
              "type": "uint256"
            },
            {
              "internalType": "uint256",
              "name": "quantity",
              "type": "uint256"
            },
            {
              "internalType": "uint256",
              "name": "price",
              "type": "uint256"
            },
            {
              "internalType": "bool",
              "name": "buy",
              "type": "bool"
            },
            {
              "internalType": "uint256",
              "name": "deadline",
              "type": "uint256"
            },
            {
              "internalType": "uint256",
              "name": "salt",
              "type": "uint256"
            },
            {
              "internalType": "bytes",
              "name": "order_signature",
              "type": "bytes"
            }
          ],
          "internalType": "struct Order[]",
          "name": "orders_",
          "type": "tuple[]"
        }
      ],
      "name": "cancelOrders",
      "outputs": [],
      "stateMutability": "nonpayable",
      "type": "function"
    },
    {
      "inputs": [],
      "name": "collateral_token",
      "outputs": [
        {
          "internalType": "contract IERC20",
          "name": "",
          "type": "address"
        }
      ],
      "stateMutability": "view",
      "type": "function"
    },
    {
      "inputs": [],
      "name": "ctf",
      "outputs": [
        {
          "internalType": "contract IConditionalTokens",
          "name": "",
          "type": "address"
        }
      ],
      "stateMutability": "view",
      "type": "function"
    },
    {
      "inputs": [],
      "name": "eip712Domain",
      "outputs": [
        {
          "internalType": "bytes1",
          "name": "fields",
          "type": "bytes1"
        },
        {
          "internalType": "string",
          "name": "name",
          "type": "string"
        },
        {
          "internalType": "string",
          "name": "version",
          "type": "string"
        },
        {
          "internalType": "uint256",
          "name": "chainId",
          "type": "uint256"
        },
        {
          "internalType": "address",
          "name": "verifyingContract",
          "type": "address"
        },
        {
          "internalType": "bytes32",
          "name": "salt",
          "type": "bytes32"
        },
        {
          "internalType": "uint256[]",
          "name": "extensions",
          "type": "uint256[]"
        }
      ],
      "stateMutability": "view",
      "type": "function"
    },
    {
      "inputs": [
        {
          "internalType": "uint256",
          "name": "token",
          "type": "uint256"
        }
      ],
      "name": "getComplement",
      "outputs": [
        {
          "internalType": "uint256",
          "name": "",
          "type": "uint256"
        }
      ],
      "stateMutability": "view",
      "type": "function"
    },
    {
      "inputs": [
        {
          "internalType": "uint256",
          "name": "token",
          "type": "uint256"
        }
      ],
      "name": "getConditionId",
      "outputs": [
        {
          "internalType": "bytes32",
          "name": "",
          "type": "bytes32"
        }
      ],
      "stateMutability": "view",
      "type": "function"
    },
    {
      "inputs": [
        {
          "internalType": "address",
          "name": "ctf_",
          "type": "address"
        },
        {
          "internalType": "address",
          "name": "collateral_token_",
          "type": "address"
        }
      ],
      "name": "init",
      "outputs": [],
      "stateMutability": "nonpayable",
      "type": "function"
    },
    {
      "inputs": [
        {
          "internalType": "address",
          "name": "",
          "type": "address"
        },
        {
          "internalType": "uint256",
          "name": "",
          "type": "uint256"
        },
        {
          "internalType": "bool",
          "name": "",
          "type": "bool"
        }
      ],
      "name": "maker_min_valid_salt",
      "outputs": [
        {
          "internalType": "uint256",
          "name": "",
          "type": "uint256"
        }
      ],
      "stateMutability": "view",
      "type": "function"
    },
    {
      "inputs": [
        {
          "internalType": "address",
          "name": "maker_",
          "type": "address"
        },
        {
          "internalType": "uint256",
          "name": "option_id_",
          "type": "uint256"
        },
        {
          "internalType": "bool",
          "name": "long_",
          "type": "bool"
        }
      ],
      "name": "minValidSalt",
      "outputs": [
        {
          "internalType": "uint256",
          "name": "",
          "type": "uint256"
        }
      ],
      "stateMutability": "view",
      "type": "function"
    },
    {
      "inputs": [
        {
          "internalType": "address",
          "name": "",
          "type": "address"
        },
        {
          "internalType": "address",
          "name": "",
          "type": "address"
        },
        {
          "internalType": "uint256[]",
          "name": "",
          "type": "uint256[]"
        },
        {
          "internalType": "uint256[]",
          "name": "",
          "type": "uint256[]"
        },
        {
          "internalType": "bytes",
          "name": "",
          "type": "bytes"
        }
      ],
      "name": "onERC1155BatchReceived",
      "outputs": [
        {
          "internalType": "bytes4",
          "name": "",
          "type": "bytes4"
        }
      ],
      "stateMutability": "nonpayable",
      "type": "function"
    },
    {
      "inputs": [
        {
          "internalType": "address",
          "name": "",
          "type": "address"
        },
        {
          "internalType": "address",
          "name": "",
          "type": "address"
        },
        {
          "internalType": "uint256",
          "name": "",
          "type": "uint256"
        },
        {
          "internalType": "uint256",
          "name": "",
          "type": "uint256"
        },
        {
          "internalType": "bytes",
          "name": "",
          "type": "bytes"
        }
      ],
      "name": "onERC1155Received",
      "outputs": [
        {
          "internalType": "bytes4",
          "name": "",
          "type": "bytes4"
        }
      ],
      "stateMutability": "nonpayable",
      "type": "function"
    },
    {
      "inputs": [
        {
          "internalType": "bytes32",
          "name": "",
          "type": "bytes32"
        }
      ],
      "name": "order_hash_to_filled_amount",
      "outputs": [
        {
          "internalType": "uint256",
          "name": "",
          "type": "uint256"
        }
      ],
      "stateMutability": "view",
      "type": "function"
    },
    {
      "inputs": [
        {
          "internalType": "uint256",
          "name": "token0_",
          "type": "uint256"
        },
        {
          "internalType": "uint256",
          "name": "token1_",
          "type": "uint256"
        },
        {
          "internalType": "bytes32",
          "name": "condition_id_",
          "type": "bytes32"
        }
      ],
      "name": "registerToken",
      "outputs": [],
      "stateMutability": "nonpayable",
      "type": "function"
    },
    {
      "inputs": [
        {
          "components": [
            {
              "internalType": "address",
              "name": "maker_address",
              "type": "address"
            },
            {
              "internalType": "uint256",
              "name": "token_id",
              "type": "uint256"
            },
            {
              "internalType": "uint256",
              "name": "quantity",
              "type": "uint256"
            },
            {
              "internalType": "uint256",
              "name": "price",
              "type": "uint256"
            },
            {
              "internalType": "bool",
              "name": "buy",
              "type": "bool"
            },
            {
              "internalType": "uint256",
              "name": "deadline",
              "type": "uint256"
            },
            {
              "internalType": "uint256",
              "name": "salt",
              "type": "uint256"
            },
            {
              "internalType": "bytes",
              "name": "order_signature",
              "type": "bytes"
            }
          ],
          "internalType": "struct Order",
          "name": "taker_order_",
          "type": "tuple"
        },
        {
          "components": [
            {
              "internalType": "address",
              "name": "maker_address",
              "type": "address"
            },
            {
              "internalType": "uint256",
              "name": "token_id",
              "type": "uint256"
            },
            {
              "internalType": "uint256",
              "name": "quantity",
              "type": "uint256"
            },
            {
              "internalType": "uint256",
              "name": "price",
              "type": "uint256"
            },
            {
              "internalType": "bool",
              "name": "buy",
              "type": "bool"
            },
            {
              "internalType": "uint256",
              "name": "deadline",
              "type": "uint256"
            },
            {
              "internalType": "uint256",
              "name": "salt",
              "type": "uint256"
            },
            {
              "internalType": "bytes",
              "name": "order_signature",
              "type": "bytes"
            }
          ],
          "internalType": "struct Order[]",
          "name": "maker_orders_",
          "type": "tuple[]"
        },
        {
          "internalType": "uint256",
          "name": "taker_fill_amount_",
          "type": "uint256"
        },
        {
          "internalType": "uint256[]",
          "name": "maker_fill_amounts_",
          "type": "uint256[]"
        }
      ],
      "name": "registerTrades",
      "outputs": [],
      "stateMutability": "nonpayable",
      "type": "function"
    },
    {
      "inputs": [
        {
          "internalType": "uint256",
          "name": "",
          "type": "uint256"
        }
      ],
      "name": "registry",
      "outputs": [
        {
          "internalType": "uint256",
          "name": "complement",
          "type": "uint256"
        },
        {
          "internalType": "bytes32",
          "name": "conditionId",
          "type": "bytes32"
        }
      ],
      "stateMutability": "view",
      "type": "function"
    },
    {
      "inputs": [
        {
          "internalType": "bytes4",
          "name": "interfaceId",
          "type": "bytes4"
        }
      ],
      "name": "supportsInterface",
      "outputs": [
        {
          "internalType": "bool",
          "name": "",
          "type": "bool"
        }
      ],
      "stateMutability": "view",
      "type": "function"
    },
    {
      "inputs": [
        {
          "internalType": "uint256",
          "name": "token",
          "type": "uint256"
        },
        {
          "internalType": "uint256",
          "name": "complement",
          "type": "uint256"
        }
      ],
      "name": "validateComplement",
      "outputs": [],
      "stateMutability": "view",
      "type": "function"
    },
    {
      "inputs": [
        {
          "internalType": "uint256",
          "name": "tokenId",
          "type": "uint256"
        }
      ],
      "name": "validateTokenId",
      "outputs": [],
      "stateMutability": "view",
      "type": "function"
    }
  ],
  "bytecode": "0x60806040523480156200001157600080fd5b506200001c62000022565b620000d6565b7ff0c57e16840df040f15088dc2f81fe391c3923bec73e23a9662efc9c229c6a00805468010000000000000000900460ff1615620000735760405163f92ee8a960e01b815260040160405180910390fd5b80546001600160401b0390811614620000d35780546001600160401b0319166001600160401b0390811782556040519081527fc7f505b2f371ae2175ee4913f4499e1f2633a7b5936321eed1cdaeb6115181d29060200160405180910390a15b50565b61314180620000e66000396000f3fe608060405234801561001057600080fd5b50600436106101375760003560e01c806384b0196e116100b8578063bd6c0e971161007c578063bd6c0e97146102d5578063d7fb272f146102e8578063d82da8381461030b578063f09a40161461031e578063f23a6e6114610331578063f385efb91461035057600080fd5b806384b0196e146102435780638e74d21d1461025e57806391d964521461028f578063a10f3dce146102a2578063bc197c81146102b557600080fd5b806335f5dbe6116100ff57806335f5dbe6146101c05780633644e515146101d35780635893253c146101e857806368c7450f1461021d5780637bbcf3781461023057600080fd5b806301ffc9a71461013c57806322a9339f146101655780632621db2f146101855780632ef5ec2c1461019857806334600901146101ad575b600080fd5b61014f61014a366004611fec565b610370565b60405161015c9190612017565b60405180910390f35b600154610178906001600160a01b031681565b60405161015c9190612067565b600254610178906001600160a01b031681565b6101ab6101a63660046120be565b6103a7565b005b6101ab6101bb366004612122565b610459565b6101ab6101ce36600461215f565b61048a565b6101db6104cd565b60405161015c919061219f565b61020f6101f6366004612122565b6000602081905290815260409020805460019091015482565b60405161015c9291906121ad565b6101ab61022b3660046121c8565b6104dc565b6101ab61023e36600461236e565b6104ec565b61024b611006565b60405161015c97969594939291906124f0565b6101db61026c36600461256c565b600460209081526000938452604080852082529284528284209052825290205481565b6101ab61029d3660046125b2565b61108a565b6101db6102b0366004612122565b611124565b6102c86102c336600461268f565b611142565b60405161015c9190612758565b6101db6102e336600461256c565b611154565b6101db6102f6366004612122565b60009081526020819052604090206001015490565b6101ab610319366004612766565b61118a565b6101ab61032c3660046127a3565b6111b6565b6102c861033f3660046127d6565b63f23a6e6160e01b95945050505050565b6101db61035e366004612122565b60036020526000908152604090205481565b60006001600160e01b03198216630271189760e51b14806103a157506301ffc9a760e01b6001600160e01b03198316145b92915050565b336001600160a01b038516146103d85760405162461bcd60e51b81526004016103cf90612855565b60405180910390fd5b6001600160a01b038416600090815260046020908152604080832086845282528083208515158452909152902054818111156104265760405162461bcd60e51b81526004016103cf90612888565b506001600160a01b0390931660009081526004602090815260408083209483529381528382209215158252919091522055565b6000818152602081905260408120549003610487576040516307ed98ed60e31b815260040160405180910390fd5b50565b6104a861049a6020830183612898565b6001600160a01b0316331490565b6104c45760405162461bcd60e51b81526004016103cf90612855565b61048781611333565b60006104d761141b565b905090565b6104e7838383611425565b505050565b8051831461050c5760405162461bcd60e51b81526004016103cf906128dd565b610516858361154d565b6002546040805163313ce56760e01b815290516000926001600160a01b03169163313ce5679160048083019260209291908290030181865afa158015610560573d6000803e3d6000fd5b505050506040513d601f19601f820116820180604052508101906105849190612901565b61058f90600a612a41565b905060005b84811015610ffd576105e28686838181106105b1576105b1612a56565b90506020028101906105c39190612a6c565b8483815181106105d5576105d5612a56565b602002602001015161154d565b60008686838181106105f6576105f6612a56565b90506020028101906106089190612a6c565b6040805160028082526060808301845293909301359350600092909160208301908036833701905050905060018160008151811061064857610648612a56565b60200260200101818152505060028160018151811061066957610669612a56565b60200260200101818152505087878481811061068757610687612a56565b90506020028101906106999190612a6c565b6106aa9060a0810190608001612a90565b80156106c157506106c160a08a0160808b01612a90565b15610a7357836106d560608b013584612ab1565b10156106f35760405162461bcd60e51b81526004016103cf90612ae8565b61074961070360208b018b612898565b3061073588878151811061071957610719612a56565b6020026020010151868961072d9190612af8565b896001611790565b6002546001600160a01b03169291906117e3565b6107a588888581811061075e5761075e612a56565b90506020028101906107709190612a6c565b61077e906020810190612898565b3061073588878151811061079457610794612a56565b602002602001015186896001611790565b60025460015486516001600160a01b039283169263095ea7b39216908890879081106107d3576107d3612a56565b60200260200101516040518363ffffffff1660e01b81526004016107f8929190612b0b565b6020604051808303816000875af1158015610817573d6000803e3d6000fd5b505050506040513d601f19601f8201168201806040525081019061083b9190612b24565b506001546002546001600160a01b03918216916372ce4275911660006108978c8c8981811061086c5761086c612a56565b905060200281019061087e9190612a6c565b6020013560009081526020819052604090206001015490565b858a89815181106108aa576108aa612a56565b60200260200101516040518663ffffffff1660e01b81526004016108d2959493929190612b45565b600060405180830381600087803b1580156108ec57600080fd5b505af1158015610900573d6000803e3d6000fd5b50506001546001600160a01b0316915063f242432a90503061092560208d018d612898565b8c6020013589888151811061093c5761093c612a56565b60200260200101516040518563ffffffff1660e01b81526004016109639493929190612b8e565b600060405180830381600087803b15801561097d57600080fd5b505af1158015610991573d6000803e3d6000fd5b50506001546001600160a01b0316915063f242432a9050308a8a878181106109bb576109bb612a56565b90506020028101906109cd9190612a6c565b6109db906020810190612898565b8b8b888181106109ed576109ed612a56565b90506020028101906109ff9190612a6c565b60200135898881518110610a1557610a15612a56565b60200260200101516040518563ffffffff1660e01b8152600401610a3c9493929190612b8e565b600060405180830381600087803b158015610a5657600080fd5b505af1158015610a6a573d6000803e3d6000fd5b50505050610fe8565b878784818110610a8557610a85612a56565b9050602002810190610a979190612a6c565b610aa89060a0810190608001612a90565b80610abe5750610abe60a08a0160808b01612a90565b610daa5783610ad160608b013584612ab1565b1115610aef5760405162461bcd60e51b81526004016103cf90612ae8565b6001546001600160a01b031663f242432a610b0d60208c018c612898565b308c60200135898881518110610b2557610b25612a56565b60200260200101516040518563ffffffff1660e01b8152600401610b4c9493929190612b8e565b600060405180830381600087803b158015610b6657600080fd5b505af1158015610b7a573d6000803e3d6000fd5b50506001546001600160a01b0316915063f242432a9050898986818110610ba357610ba3612a56565b9050602002810190610bb59190612a6c565b610bc3906020810190612898565b308b8b88818110610bd657610bd6612a56565b9050602002810190610be89190612a6c565b60200135898881518110610bfe57610bfe612a56565b60200260200101516040518563ffffffff1660e01b8152600401610c259493929190612b8e565b600060405180830381600087803b158015610c3f57600080fd5b505af1158015610c53573d6000803e3d6000fd5b50506001546002546001600160a01b039182169350639e7212ad9250166000610c878c8c8981811061086c5761086c612a56565b858a8981518110610c9a57610c9a612a56565b60200260200101516040518663ffffffff1660e01b8152600401610cc2959493929190612b45565b600060405180830381600087803b158015610cdc57600080fd5b505af1158015610cf0573d6000803e3d6000fd5b50610d4a9250610d0691505060208b018b612898565b610d37878681518110610d1b57610d1b612a56565b60200260200101518588610d2f9190612af8565b886000611790565b6002546001600160a01b03169190611843565b610da5888885818110610d5f57610d5f612a56565b9050602002810190610d719190612a6c565b610d7f906020810190612898565b610d37878681518110610d9457610d94612a56565b602002602001015185886000611790565b610fe8565b878784818110610dbc57610dbc612a56565b9050602002810190610dce9190612a6c565b610ddf9060a0810190608001612a90565b15610e9e578860600135821015610e085760405162461bcd60e51b81526004016103cf90612ae8565b610e6e888885818110610e1d57610e1d612a56565b9050602002810190610e2f9190612a6c565b610e3d906020810190612898565b610e4a60208c018c612898565b610735888781518110610e5f57610e5f612a56565b60200260200101518689611869565b6001546001600160a01b031663f242432a610e8c60208c018c612898565b8a8a878181106109bb576109bb612a56565b8860600135821115610ec25760405162461bcd60e51b81526004016103cf90612ae8565b610f04610ed260208b018b612898565b898986818110610ee457610ee4612a56565b9050602002810190610ef69190612a6c565b610e4a906020810190612898565b6001546001600160a01b031663f242432a898986818110610f2757610f27612a56565b9050602002810190610f399190612a6c565b610f47906020810190612898565b610f5460208d018d612898565b8b8b88818110610f6657610f66612a56565b9050602002810190610f789190612a6c565b60200135898881518110610f8e57610f8e612a56565b60200260200101516040518563ffffffff1660e01b8152600401610fb59493929190612b8e565b600060405180830381600087803b158015610fcf57600080fd5b505af1158015610fe3573d6000803e3d6000fd5b505050505b50508080610ff590612bd8565b915050610594565b50505050505050565b600060608082808083816000805160206130ec833981519152805490915015801561103357506001810154155b61104f5760405162461bcd60e51b81526004016103cf90612c1e565b61105761192d565b61105f6119f0565b60408051600080825260208201909252600f60f81b9c939b5091995046985030975095509350915050565b60005b818110156104e7576110ca8383838181106110aa576110aa612a56565b90506020028101906110bc9190612a6c565b61049a906020810190612898565b6110e65760405162461bcd60e51b81526004016103cf90612855565b6111128383838181106110fb576110fb612a56565b905060200281019061110d9190612a6c565b611333565b8061111c81612bd8565b91505061108d565b600061112f82610459565b5060009081526020819052604090205490565b63bc197c8160e01b5b95945050505050565b6001600160a01b0383166000908152600460209081526040808320858452825280832084151584529091529020545b9392505050565b8061119483611124565b146111b25760405163337c310560e11b815260040160405180910390fd5b5050565b7ff0c57e16840df040f15088dc2f81fe391c3923bec73e23a9662efc9c229c6a008054600160401b810460ff1615906001600160401b03166000811580156111fb5750825b90506000826001600160401b031660011480156112175750303b155b905081158015611225575080155b156112435760405163f92ee8a960e01b815260040160405180910390fd5b845467ffffffffffffffff19166001178555831561126d57845460ff60401b1916600160401b1785555b600180546001600160a01b03808a166001600160a01b031992831617835560028054918a1691909216179055604080518082018252600c81526b2a3930b232a6b0ba31b432b960a11b6020808301919091528251808401909352928252603160f81b928201929092526112e09190611a2f565b8315610ffd57845460ff60401b191685556040517fc7f505b2f371ae2175ee4913f4499e1f2633a7b5936321eed1cdaeb6115181d29061132290600190612c48565b60405180910390a150505050505050565b60007feb9738589be692fa14eb2e9836a58ae7c0c604351f371cf1de69e3d1c7bd4c7f6113636020840184612898565b60208401356040850135606086013561138260a0880160808901612a90565b8760a001358860c001356040516020016113a3989796959493929190612c56565b60408051601f198184030181529181528151602092830120600081815260038452919091208054600160ff1b179055915081906113e290840184612898565b6001600160a01b03167f35974c4230d53fb4c6e8553fd900c88ba92747dbc689a79bcd6ba755cb93698560405160405180910390a35050565b60006104d7611a41565b818314806114395750821580611439575081155b15611457576040516307ed98ed60e31b815260040160405180910390fd5b600083815260208190526040902054151580611480575060008281526020819052604090205415155b1561149e57604051630ea075bf60e21b815260040160405180910390fd5b604080518082018252838152602080820184815260008781528083528481209351845590516001938401558351808501855287815280830186815287835292829052848220905181559151919092015590518291849186917fbc9a2432e8aeb48327246cddd6e872ef452812b4243c04e6bfb786a2cd8faf0d91a48083837fbc9a2432e8aeb48327246cddd6e872ef452812b4243c04e6bfb786a2cd8faf0d60405160405180910390a4505050565b8160a001354211156115715760405162461bcd60e51b81526004016103cf90612ce4565b600460006115826020850185612898565b6001600160a01b03168152602080820192909252604090810160009081208584013582529092528120906115bc60a0850160808601612a90565b151515158152602001908152602001600020548260c0013510156115f25760405162461bcd60e51b81526004016103cf90612d28565b60006116807feb9738589be692fa14eb2e9836a58ae7c0c604351f371cf1de69e3d1c7bd4c7f6116256020860186612898565b60208601356040870135606088013561164460a08a0160808b01612a90565b8960a001358a60c00135604051602001611665989796959493929190612c56565b60405160208183030381529060405280519060200120611aa5565b600081815260036020526040902054909150600160ff1b8116156116b65760405162461bcd60e51b81526004016103cf90612d5e565b60408401356116c58483612ab1565b11156116e35760405162461bcd60e51b81526004016103cf90612d8d565b6116ed8382612ab1565b60008381526003602052604081209190915561174a8361171060e0880188612d9d565b8080601f016020809104026020016040519081016040528093929190818152602001838380828437600092019190915250611ad292505050565b905061176d61175c6020870187612898565b6001600160a01b0380841691161490565b6117895760405162461bcd60e51b81526004016103cf90612e20565b5050505050565b60008061179e868686611869565b90506117a983611afc565b80156117c55750600084806117c0576117c0612e30565b868809115b156117d8576117d5600182612ab1565b90505b90505b949350505050565b61183d84856001600160a01b03166323b872dd86868660405160240161180b93929190612e46565b604051602081830303815290604052915060e01b6020820180516001600160e01b038381831617835250505050611b29565b50505050565b6104e783846001600160a01b031663a9059cbb858560405160240161180b929190612b0b565b60008383028160001985870982811083820303915050806000036118a05783828161189657611896612e30565b0492505050611183565b8084116118c05760405163227bc15360e01b815260040160405180910390fd5b6000848688096000868103871696879004966002600389028118808a02820302808a02820302808a02820302808a02820302808a02820302808a02909103029181900381900460010186841190950394909402919094039290920491909117919091029150509392505050565b7fa16a46d94261c7517cc8ff89f61c0ce93598e3c849801011dee649a6a557d10280546060916000805160206130ec8339815191529161196c90612e84565b80601f016020809104026020016040519081016040528092919081815260200182805461199890612e84565b80156119e55780601f106119ba576101008083540402835291602001916119e5565b820191906000526020600020905b8154815290600101906020018083116119c857829003601f168201915b505050505091505090565b7fa16a46d94261c7517cc8ff89f61c0ce93598e3c849801011dee649a6a557d10380546060916000805160206130ec8339815191529161196c90612e84565b611a37611b83565b6111b28282611bce565b60007f8b73c3c69bb8fe3d512ecc4cf759cc79239f7b179b0ffacaa9a75d522b39400f611a6c611c2f565b611a74611c99565b4630604051602001611a8a959493929190612eaa565b60405160208183030381529060405280519060200120905090565b60006103a1611ab261141b565b8360405161190160f01b8152600281019290925260228201526042902090565b600080600080611ae28686611cdd565b925092509250611af28282611d2a565b5090949350505050565b60006002826003811115611b1257611b12612eec565b611b1c9190612f02565b60ff166001149050919050565b6000611b3e6001600160a01b03841683611de1565b90508051600014158015611b63575080806020019051810190611b619190612b24565b155b156104e75782604051635274afe760e01b81526004016103cf9190612f1d565b7ff0c57e16840df040f15088dc2f81fe391c3923bec73e23a9662efc9c229c6a0054600160401b900460ff16611bcc57604051631afcd79f60e31b815260040160405180910390fd5b565b611bd6611b83565b6000805160206130ec8339815191527fa16a46d94261c7517cc8ff89f61c0ce93598e3c849801011dee649a6a557d102611c108482612fbc565b5060038101611c1f8382612fbc565b5060008082556001909101555050565b60006000805160206130ec83398151915281611c4961192d565b805190915015611c6157805160209091012092915050565b81548015611c70579392505050565b7fc5d2460186f7233c927e7db2dcc703c0e500b653ca82273b7bfad8045d85a470935050505090565b60006000805160206130ec83398151915281611cb36119f0565b805190915015611ccb57805160209091012092915050565b60018201548015611c70579392505050565b60008060008351604103611d175760208401516040850151606086015160001a611d0988828585611def565b955095509550505050611d23565b50508151600091506002905b9250925092565b6000826003811115611d3e57611d3e612eec565b03611d47575050565b6001826003811115611d5b57611d5b612eec565b03611d795760405163f645eedf60e01b815260040160405180910390fd5b6002826003811115611d8d57611d8d612eec565b03611dad5760405163fce698f760e01b81526103cf90829060040161219f565b6003826003811115611dc157611dc1612eec565b036111b257806040516335e2f38360e21b81526004016103cf919061219f565b606061118383836000611eb1565b600080807f7fffffffffffffffffffffffffffffff5d576e7357a4501ddfe92f46681b20a0841115611e2a5750600091506003905082611ea7565b600060018888888860405160008152602001604052604051611e4f9493929190613088565b6020604051602081039080840390855afa158015611e71573d6000803e3d6000fd5b5050604051601f1901519150506001600160a01b038116611e9d57506000925060019150829050611ea7565b9250600091508190505b9450945094915050565b606081471015611ed6573060405163cd78605960e01b81526004016103cf9190612f1d565b600080856001600160a01b03168486604051611ef291906130df565b60006040518083038185875af1925050503d8060008114611f2f576040519150601f19603f3d011682016040523d82523d6000602084013e611f34565b606091505b5091509150611f44868383611f4e565b9695505050505050565b606082611f6357611f5e82611fa1565b611183565b8151158015611f7a57506001600160a01b0384163b155b15611f9a5783604051639996b31560e01b81526004016103cf9190612f1d565b5080611183565b805115611fb15780518082602001fd5b604051630a12f52160e11b815260040160405180910390fd5b6001600160e01b031981165b811461048757600080fd5b80356103a181611fca565b60006020828403121561200157612001600080fd5b60006117db8484611fe1565b8015155b82525050565b602081016103a1828461200d565b60006103a16001600160a01b03831661203c565b90565b6001600160a01b031690565b60006103a182612025565b60006103a182612048565b61201181612053565b602081016103a1828461205e565b60006001600160a01b0382166103a1565b611fd681612075565b80356103a181612086565b80611fd6565b80356103a18161209a565b801515611fd6565b80356103a1816120ab565b600080600080608085870312156120d7576120d7600080fd5b60006120e3878761208f565b94505060206120f4878288016120a0565b9350506040612105878288016120b3565b9250506060612116878288016120a0565b91505092959194509250565b60006020828403121561213757612137600080fd5b60006117db84846120a0565b6000610100828403121561215957612159600080fd5b50919050565b60006020828403121561217457612174600080fd5b81356001600160401b0381111561218d5761218d600080fd5b6117db84828501612143565b80612011565b602081016103a18284612199565b604081016121bb8285612199565b6111836020830184612199565b6000806000606084860312156121e0576121e0600080fd5b60006121ec86866120a0565b93505060206121fd868287016120a0565b925050604061220e868287016120a0565b9150509250925092565b60008083601f84011261222d5761222d600080fd5b5081356001600160401b0381111561224757612247600080fd5b60208301915083602082028301111561226257612262600080fd5b9250929050565b634e487b7160e01b600052604160045260246000fd5b601f19601f83011681018181106001600160401b03821117156122a4576122a4612269565b6040525050565b60006122b660405190565b90506122c2828261227f565b919050565b60006001600160401b038211156122e0576122e0612269565b5060209081020190565b60006122fd6122f8846122c7565b6122ab565b8381529050602080820190840283018581111561231c5761231c600080fd5b835b81811015612340578061233188826120a0565b8452506020928301920161231e565b5050509392505050565b600082601f83011261235e5761235e600080fd5b81356117db8482602086016122ea565b60008060008060006080868803121561238957612389600080fd5b85356001600160401b038111156123a2576123a2600080fd5b6123ae88828901612143565b95505060208601356001600160401b038111156123cd576123cd600080fd5b6123d988828901612218565b945094505060406123ec888289016120a0565b92505060608601356001600160401b0381111561240b5761240b600080fd5b6124178882890161234a565b9150509295509295909350565b6001600160f81b03198116612011565b60005b8381101561244f578181015183820152602001612437565b50506000910152565b6000612462825190565b808452602084019350612479818560208601612434565b601f01601f19169290920192915050565b61201181612075565b600061249f8383612199565b505060200190565b60006124b1825190565b80845260209384019383018060005b838110156124e55781516124d48882612493565b9750602083019250506001016124c0565b509495945050505050565b60e081016124fe828a612424565b81810360208301526125108189612458565b905081810360408301526125248188612458565b90506125336060830187612199565b612540608083018661248a565b61254d60a0830185612199565b81810360c083015261255f81846124a7565b9998505050505050505050565b60008060006060848603121561258457612584600080fd5b6000612590868661208f565b93505060206125a1868287016120a0565b925050604061220e868287016120b3565b600080602083850312156125c8576125c8600080fd5b82356001600160401b038111156125e1576125e1600080fd5b6125ed85828601612218565b92509250509250929050565b60006001600160401b0382111561261257612612612269565b601f19601f83011660200192915050565b82818337506000910152565b600061263d6122f8846125f9565b90508281526020810184848401111561265857612658600080fd5b612663848285612623565b509392505050565b600082601f83011261267f5761267f600080fd5b81356117db84826020860161262f565b600080600080600060a086880312156126aa576126aa600080fd5b60006126b6888861208f565b95505060206126c78882890161208f565b94505060408601356001600160401b038111156126e6576126e6600080fd5b6126f28882890161234a565b93505060608601356001600160401b0381111561271157612711600080fd5b61271d8882890161234a565b92505060808601356001600160401b0381111561273c5761273c600080fd5b6124178882890161266b565b6001600160e01b03198116612011565b602081016103a18284612748565b6000806040838503121561277c5761277c600080fd5b600061278885856120a0565b9250506020612799858286016120a0565b9150509250929050565b600080604083850312156127b9576127b9600080fd5b60006127c5858561208f565b92505060206127998582860161208f565b600080600080600060a086880312156127f1576127f1600080fd5b60006127fd888861208f565b955050602061280e8882890161208f565b945050604061281f888289016120a0565b935050606061271d888289016120a0565b600b81526000602082016a08585d5d1a1bdc9a5e995960aa1b815291505b5060200190565b602080825281016103a181612830565b600c81526000602082016b73616c7420746f6f206c6f7760a01b8152915061284e565b602080825281016103a181612865565b6000602082840312156128ad576128ad600080fd5b60006117db848461208f565b600d81526000602082016c1a5b9d985b1a59081a5b9c1d5d609a1b8152915061284e565b602080825281016103a1816128b9565b60ff8116611fd6565b80516103a1816128ed565b60006020828403121561291657612916600080fd5b60006117db84846128f6565b634e487b7160e01b600052601160045260246000fd5b80825b60018511156129775780860481111561295657612956612922565b600185161561296457908102905b80026129708560011c90565b945061293b565b94509492505050565b60008261298f57506001611183565b8161299c57506000611183565b81600181146129b257600281146129bc576129e9565b6001915050611183565b60ff8411156129cd576129cd612922565b8360020a9150848211156129e3576129e3612922565b50611183565b5060208310610133831016604e8410600b8410161715612a17575081810a83811115611f5e57611f5e612922565b612a248484846001612938565b92509050818404811115612a3a57612a3a612922565b0292915050565b600060ff831692506111836000198484612980565b634e487b7160e01b600052603260045260246000fd5b6000823560fe1936849003018112612a8657612a86600080fd5b9190910192915050565b600060208284031215612aa557612aa5600080fd5b60006117db84846120b3565b808201808211156103a1576103a1612922565b600d81526000602082016c696e76616c696420707269636560981b8152915061284e565b602080825281016103a181612ac4565b818103818111156103a1576103a1612922565b604081016121bb828561248a565b80516103a1816120ab565b600060208284031215612b3957612b39600080fd5b60006117db8484612b19565b60a08101612b53828861205e565b612b606020830187612199565b612b6d6040830186612199565b8181036060830152612b7f81856124a7565b9050611f446080830184612199565b60a08101612b9c828761248a565b612ba9602083018661248a565b612bb66040830185612199565b612bc36060830184612199565b81810360808301526000815260208101611f44565b60006000198203612beb57612beb612922565b5060010190565b60158152600060208201741152540dcc4c8e88155b9a5b9a5d1a585b1a5e9959605a1b8152915061284e565b602080825281016103a181612bf2565b60006001600160401b0382166103a1565b61201181612c2e565b602081016103a18284612c3f565b6101008101612c65828b612199565b612c72602083018a61248a565b612c7f6040830189612199565b612c8c6060830188612199565b612c996080830187612199565b612ca660a083018661200d565b612cb360c0830185612199565b61255f60e0830184612199565b600d81526000602082016c1bdc99195c88195e1c1a5c9959609a1b8152915061284e565b602080825281016103a181612cc0565b601e81526000602082017f696e76616c69642073616c74202f206f726465722063616e63656c6c656400008152915061284e565b602080825281016103a181612cf4565b600f81526000602082016e1bdc99195c8818d85b98d95b1b1959608a1b8152915061284e565b602080825281016103a181612d38565b60088152600060208201671bdd995c999a5b1b60c21b8152915061284e565b602080825281016103a181612d6e565b6000808335601e1936859003018112612db857612db8600080fd5b8084019250823591506001600160401b03821115612dd857612dd8600080fd5b602083019250600182023603831315612df357612df3600080fd5b509250929050565b600e81526000602082016d34b73b30b634b21039b4b3b732b960911b8152915061284e565b602080825281016103a181612dfb565b634e487b7160e01b600052601260045260246000fd5b60608101612e54828661248a565b612e61602083018561248a565b6117db6040830184612199565b634e487b7160e01b600052602260045260246000fd5b600281046001821680612e9857607f821691505b60208210810361215957612159612e6e565b60a08101612eb88288612199565b612ec56020830187612199565b612ed26040830186612199565b612edf6060830185612199565b611f44608083018461248a565b634e487b7160e01b600052602160045260246000fd5b60ff9182169116600082612f1857612f18612e30565b500690565b602081016103a1828461248a565b60006103a16120398381565b612f4083612f2b565b815460001960089490940293841b1916921b91909117905550565b60006104e7818484612f37565b818110156111b257612f7b600082612f5b565b600101612f68565b601f8211156104e7576000818152602090206020601f85010481016020851015612faa5750805b6117896020601f860104830182612f68565b81516001600160401b03811115612fd557612fd5612269565b612fdf8254612e84565b612fea828285612f83565b6020601f83116001811461301e57600084156130065750858201515b600019600886021c1981166002860217865550613077565b600085815260208120601f198616915b8281101561304e578885015182556020948501946001909201910161302e565b8683101561306a5784890151600019601f89166008021c191682555b6001600288020188555050505b505050505050565b60ff8116612011565b608081016130968287612199565b6130a3602083018661307f565b6130b06040830185612199565b61114b6060830184612199565b60006130c7825190565b6130d5818560208601612434565b9290920192915050565b600061118382846130bd56fea16a46d94261c7517cc8ff89f61c0ce93598e3c849801011dee649a6a557d100a2646970667358221220d15f2771ef5a497d1efb10002e3c3be5277c7b63b5d7bc57e7b1cadf87ce32fb64736f6c63430008140033",
  "linkReferences": {},
  "deployedLinkReferences": {}
}